:020000040800F2
:1000000000C0002031550008CD1E0008D51E000894
:10001000E11E0008ED1E0008F91E000800000000A7
:10002000000000000000000000000000051F0008A4
:100030000D1F000800000000111F0008191F000814
:100040007955000879550008795500087955000858
:100050007955000879550008795500087955000848
:100060007955000879550008795500087520000871
:100070007955000879550008451F0008551F0008EC
:10008000651F0008751F000879550008795500089C
:10009000795500087955000879550008D51F0008E2
:1000A0007955000879550008795500080D20000899
:1000B000795500089520000879550008251F00088B
:1000C000351F000879550008851F0008795500087C
:1000D00079550008795500087955000879550008C8
:1000E000951F0008795500087955000879550008D2
:1000F0007955000879550008412000087955000815
:100100007955000879550008795500087955000897
:100110007955000879550008795500087955000887
:1001200079550008795500087955000885200008A0
:1001300000000000000000000000000000000000BF
:1001400000000000000000000000000000000000AF
:10015000000000000000000000000000000000009F
:10016000000000000000000000000000000000008F
:10017000000000000000000000000000000000007F
:10018000000000000000000000000000000000006F
:10019000000000000000000000000000000000005F
:1001A000000000000000000000000000000000004F
:1001B000000000000000000000000000000000003F
:1001C000000000000000000000000000000000002F
:1001D000000000000000000000000000000000001F
:0401E0005FF8E0F1F3
:1001E800044B05481B1A062B02D9044B03B11847C8
:1001F800704700BF6B00002068000020000000006E
:1002080005490648091A891001EBD171491002D035
:10021800034B03B1184770476800002068000020AE
:100228000000000010B5064C237843B9FFF7D8FF4B
:10023800044B13B10448AFF300800123237010BDB1
:1002480068000020000000002C5E000808B5084B7C
:100258001BB108480849AFF300800848036813B980
:10026800BDE80840CCE7064B002BF9D09847F7E7E4
:10027800000000002C5E00086C00002068000020D0
:100288000000000081F0004102E000BF83F000435D
:1002980030B54FEA41044FEA430594EA050F08BF19
:1002A80090EA020F1FBF54EA000C55EA020C7FEADD
:1002B800645C7FEA655C00F0E2804FEA5454D4EB5A
:1002C8005555B8BF6D420CDD2C4480EA020281EA24
:1002D800030382EA000083EA010180EA020281EA5C
:1002E8000303362D88BF30BD11F0004F4FEA0131AE
:1002F8004FF4801C4CEA113102D0404261EB4101BD
:1003080013F0004F4FEA03334CEA133302D0524242
:1003180063EB430394EA050F00F0A780A4F10104FE
:10032800D5F1200E0DDB02FA0EFC22FA05F2801838
:1003380041F1000103FA0EF2801843FA05F359411E
:100348000EE0A5F120050EF1200E012A03FA0EFC9D
:1003580028BF4CF0020C43FA05F3C01851EBE371C7
:1003680001F0004507D54FF0000EDCF1000C7EEBE4
:1003780000006EEB0101B1F5801F1BD3B1F5001F22
:100388000CD349085FEA30004FEA3C0C04F1010441
:100398004FEA445212F5800F80F09A80BCF1004F6A
:1003A80008BF5FEA500C50F1000041EB045141EAEC
:1003B800050130BD5FEA4C0C404141EB010111F4ED
:1003C800801FA4F10104E9D191F0000F04BF014698
:1003D8000020B1FA81F308BF2033A3F10B03B3F176
:1003E80020020CDA0C3208DD02F1140CC2F10C0206
:1003F80001FA0CF021FA02F10CE002F11402D8BF64
:10040800C2F1200C01FA02F120FA0CFCDCBF41EA2F
:100418000C019040E41AA2BF01EB0451294330BDFE
:100428006FEA04041F3C1CDA0C340EDC04F11404DB
:10043800C4F1200220FA04F001FA02F340EA0300B2
:1004480021FA04F345EA030130BDC4F10C04C4F1F8
:10045800200220FA02F001FA04F340EA03002946D8
:1004680030BD21FA04F0294630BD94F0000F83F422
:10047800801306BF81F480110134013D4EE77FEA05
:10048800645C18BF7FEA655C29D094EA050F08BF51
:1004980090EA020F05D054EA000C04BF1946104632
:1004A80030BD91EA030F1EBF0021002030BD5FEA76
:1004B800545C05D14000494128BF41F0004130BD9E
:1004C80014F580043CBF01F5801130BD01F00045F2
:1004D80045F0FE4141F470014FF0000030BD7FEA65
:1004E800645C1ABF194610467FEA655C1CBF0B4660
:1004F800024650EA013406BF52EA033591EA030F77
:1005080041F4002130BD00BF90F0000F04BF00216E
:10051800704730B54FF4806404F132044FF00005A1
:100528004FF0000150E700BF90F0000F04BF00211A
:10053800704730B54FF4806404F1320410F0004580
:1005480048BF40424FF000013EE700BF42004FEA7B
:10055800E2014FEA31014FEA02701FBF12F07F43F8
:1005680093F07F4F81F06051704792F0000F14BFF5
:1005780093F07F4F704730B54FF4607401F0004539
:1005880021F0004120E700BF50EA010208BF704790
:1005980030B54FF000050AE050EA010208BF704785
:1005A80030B511F0004502D5404261EB41014FF4EE
:1005B800806404F132045FEA915C3FF4DCAE4FF0F2
:1005C80003025FEADC0C18BF03325FEADC0C18BFD9
:1005D800033202EBDC02C2F1200300FA03FC20FA2A
:1005E80002F001FA03FE40EA0E0021FA02F1144477
:1005F800C1E600BF70B54FF0FF0C4CF4E06C1CEA8C
:1006080011541DBF1CEA135594EA0C0F95EA0C0F00
:1006180000F0DEF82C4481EA030621EA4C5123EA73
:100628004C5350EA013518BF52EA033541F48011A2
:1006380043F4801338D0A0FB02CE4FF00005E1FB55
:1006480002E506F00042E0FB03E54FF00006E1FB9F
:1006580003569CF0000F18BF4EF0010EA4F1FF04E2
:10066800B6F5007F64F5407404D25FEA4E0E6D4122
:1006780046EB060642EAC62141EA55514FEAC52033
:1006880040EA5E504FEACE2EB4F1FD0C88BFBCF5AF
:10069800E06F1ED8BEF1004F08BF5FEA500E50F160
:1006A800000041EB045170BD06F0004646EA010126
:1006B80040EA020081EA0301B4EB5C04C2BFD4EB58
:1006C8000C0541EA045170BD41F480114FF0000E51
:1006D800013C00F3AB8014F1360FDEBF002001F0BF
:1006E800004170BDC4F10004203C35DA0C341BDC39
:1006F80004F11404C4F1200500FA05F320FA04F00B
:1007080001FA05F240EA020001F0004221F000413E
:1007180010EBD37021FA04F642EB06015EEA430EB1
:1007280008BF20EAD37070BDC4F10C04C4F12005E1
:1007380000FA04F320FA05F001FA04F240EA020094
:1007480001F0004110EBD37041F100015EEA430E65
:1007580008BF20EAD37070BDC4F1200500FA05F285
:100768004EEA020E20FA04F301FA05F243EA020304
:1007780021FA04F001F0004121FA04F220EA020013
:1007880000EBD3705EEA430E08BF20EAD37070BD59
:1007980094F0000F0FD101F00046400041EB010139
:1007A80011F4801F08BF013CF7D041EA060195F01B
:1007B800000F18BF704703F00046520043EB0303D5
:1007C80013F4801F08BF013DF7D043EA06037047C2
:1007D80094EA0C0F0CEA135518BF95EA0C0F0CD0CD
:1007E80050EA410618BF52EA4306D1D181EA030113
:1007F80001F000414FF0000070BD50EA410606BF0D
:100808001046194652EA430619D094EA0C0F02D151
:1008180050EA013613D195EA0C0F05D152EA033696
:100828001CBF104619460AD181EA030101F00041B4
:1008380041F0FE4141F470014FF0000070BD41F0FD
:10084800FE4141F4780170BD70B54FF0FF0C4CF4D7
:10085800E06C1CEA11541DBF1CEA135594EA0C0FF6
:1008680095EA0C0F00F0A7F8A4EB050481EA030E43
:1008780052EA03354FEA013100F088804FEA03332A
:100888004FF0805545EA131343EA12634FEA0222F8
:1008980045EA111545EA10654FEA00260EF00041B9
:1008A8009D4208BF964244F1FD0404F5407402D20B
:1008B8005B084FEA3202B61A65EB03055B084FEA9C
:1008C80032024FF480104FF4002CB6EB020E75EB99
:1008D800030E22BFB61A754640EA0C005B084FEAC1
:1008E8003202B6EB020E75EB030E22BFB61A75463E
:1008F80040EA5C005B084FEA3202B6EB020E75EB89
:10090800030E22BFB61A754640EA9C005B084FEA00
:100918003202B6EB020E75EB030E22BFB61A75460D
:1009280040EADC0055EA060E18D04FEA051545EAFC
:1009380016754FEA06164FEAC30343EA52734FEAA5
:10094800C2025FEA1C1CC0D111F4801F0BD141EA1E
:1009580000014FF000004FF0004CB6E711F4801F83
:1009680004BF01430020B4F1FD0C88BFBCF5E06F63
:100978003FF6AFAEB5EB030C04BFB6EB020C5FEA73
:10098800500C50F1000041EB045170BD0EF0004EC8
:100998004EEA113114EB5C04C2BFD4EB0C0541EAFA
:1009A800045170BD41F480114FF0000E013C90E6F7
:1009B80045EA060E8DE60CEA135594EA0C0F08BFBB
:1009C80095EA0C0F3FF43BAF94EA0C0F0AD150EABA
:1009D80001347FF434AF95EA0C0F7FF425AF10464D
:1009E80019462CE795EA0C0F06D152EA03353FF475
:1009F800FDAE1046194622E750EA410618BF52EAF2
:100A080043067FF4C5AE50EA41047FF40DAF52EAC5
:100A180043057FF4EBAE12E74FF0FF3C06E000BF62
:100A28004FF0010C02E000BF4FF0010C4DF804CD6F
:100A38004FEA410C7FEA6C5C4FEA430C18BF7FEA2F
:100A48006C5C1BD001B050EA410C0CBF52EA430C5D
:100A580091EA030F02BF90EA020F0020704710F1DD
:100A6800000F91EA030F58BF994208BF90422CBF6C
:100A7800D8176FEAE37040F0010070474FEA410C65
:100A88007FEA6C5C02D150EA013C07D14FEA430C83
:100A98007FEA6C5CD6D152EA033CD3D05DF8040BF4
:100AA800704700BF8446104662468C461946634626
:100AB80000E000BF01B5FFF7B7FF002848BF10F1FD
:100AC800000F01BD4DF808EDFFF7F4FF0CBF012042
:100AD80000205DF808FB00BF4DF808EDFFF7EAFFBE
:100AE80034BF012000205DF808FB00BF4DF808ED79
:100AF800FFF7E0FF94BF012000205DF808FB00BF6E
:100B08004DF808EDFFF7CEFF94BF012000205DF8F7
:100B180008FB00BF4DF808EDFFF7C4FF34BF012004
:100B280000205DF808FB00BF4A0011D212F5001240
:100B380011D20DD56FF47873B3EB62520ED44FEA2D
:100B4800C12343F0004343EA505323FA02F07047AD
:100B58004FF00000704750EA013002D14FF0FF30EB
:100B680070474FF0000070474FEA4102B2F1E0438E
:100B780024BFB3F5001CDCF1FE5C0DD901F0004C7C
:100B88004FEAC0024CEA5070B2F1004F40EB8300CC
:100B980008BF20F00100704711F0804F21D113F1F8
:100BA8003872BCBF01F00040704741F480114FEA31
:100BB8005252C2F11802C2F1200C10FA0CF320FABA
:100BC80002F018BF40F001004FEAC1234FEAD323D7
:100BD80003FA0CFC40EA0C0023FA02F34FEA430341
:100BE800CCE77FEA625307D150EA01331EBF4FF0CA
:100BF800FE4040F44000704701F0004040F0FE40E5
:100C080040F40000704700BF4FF0FF0C1CEAD052C0
:100C18001EBF1CEAD15392EA0C0F93EA0C0F6FD057
:100C28001A4480EA010C400218BF5FEA41211ED035
:100C38004FF0006343EA501043EA5111A0FB013121
:100C48000CF00040B1F5000F3EBF490041EAD371F6
:100C58005B0040EA010062F17F02FD2A1DD8B3F172
:100C6800004F40EBC25008BF20F00100704790F0E1
:100C7800000F0CF0004C08BF49024CEA502040EA33
:100C880051207F3AC2BFD2F1FF0340EAC2507047F9
:100C980040F400004FF00003013A5DDC12F1190F37
:100CA800DCBF00F000407047C2F10002410021FAA9
:100CB80002F1C2F1200200FA02FC5FEA310040F1C1
:100CC800000053EA4C0308BF20EADC70704792F03A
:100CD800000F00F0004C02BF400010F4000F013A72
:100CE800F9D040EA0C0093F0000F01F0004C02BF6D
:100CF800490011F4000F013BF9D041EA0C018FE7DC
:100D08000CEAD15392EA0C0F18BF93EA0C0F0AD0E1
:100D180030F0004C18BF31F0004CD8D180EA010007
:100D280000F00040704790F0000F17BF90F0004FA0
:100D3800084691F0000F91F0004F14D092EA0C0F82
:100D480001D142020FD193EA0C0F03D14B0218BF15
:100D5800084608D180EA010000F0004040F0FE405B
:100D680040F40000704740F0FE4040F440007047F7
:100D78004FF0FF0C1CEAD0521EBF1CEAD15392EA76
:100D88000C0F93EA0C0F69D0A2EB030280EA010C66
:100D980049024FEA402037D04FF0805343EA1111FF
:100DA80043EA10130CF000408B4238BF5B0042F15D
:100DB8007D024FF4000C8B4224BF5B1A40EA0C0002
:100DC800B3EB510F24BFA3EB510340EA5C00B3EB34
:100DD800910F24BFA3EB910340EA9C00B3EBD10F22
:100DE80024BFA3EBD10340EADC001B0118BF5FEA74
:100DF8001C1CE0D1FD2A3FF650AF8B4240EBC2509D
:100E080008BF20F0010070470CF0004C4CEA50205D
:100E18007F32C2BFD2F1FF0340EAC250704740F4AC
:100E280000004FF00003013A37E792F0000F00F09E
:100E3800004C02BF400010F4000F013AF9D040EA1C
:100E48000C0093F0000F01F0004C02BF490011F4B0
:100E5800000F013BF9D041EA0C0195E70CEAD153A8
:100E680092EA0C0F08D142027FF47DAF93EA0C0F8F
:100E78007FF470AF084676E793EA0C0F04D14B0273
:100E88003FF44CAF08466EE730F0004C18BF31F025
:100E9800004CCAD130F000427FF45CAF31F000431F
:100EA8007FF43CAF5FE700BF4FF0FF3C06E000BFB8
:100EB8004FF0010C02E000BF4FF0010C4DF804CDDB
:100EC8004FEA40024FEA41037FEA226C18BF7FEAEB
:100ED800236C11D001B052EA530C18BF90EA010FED
:100EE80058BFB2EB030088BFC81738BF6FEAE1707C
:100EF80018BF40F0010070477FEA226C02D15FEA18
:100F0800402C05D17FEA236CE4D15FEA412CE1D083
:100F18005DF8040B704700BF844608466146FFE74A
:100F28000FB5FFF7C9FF002848BF10F1000F0FBD2C
:100F38004DF808EDFFF7F4FF0CBF012000205DF825
:100F480008FB00BF4DF808EDFFF7EAFF34BF0120AA
:100F580000205DF808FB00BF4DF808EDFFF7E0FF43
:100F680094BF012000205DF808FB00BF4DF808ED94
:100F7800FFF7D2FF94BF012000205DF808FB00BFF7
:100F88004DF808EDFFF7C8FF34BF012000205DF8D9
:100F980008FB00BF4FEA4002B2F1FE4F0FD34FF0FB
:100FA8009E03B3EB12620DD94FEA002343F00043CE
:100FB80010F0004F23FA02F018BF404270474FF07C
:100FC8000000704712F1610F01D1420205D110F003
:100FD800004008BF6FF0004070474FF000007047B6
:100FE80008B5436A9A6A12F0500F1CD19A6A42F403
:100FF80000729A621A68926802F46022B2F5602F51
:101008000DD1DA685AB99A6A22F480729A629A6A99
:1010180012F4805F03D19A6A42F001029A6218467C
:1010280003F0AEFF08BD1B6A1B6B984708BD00BFE5
:10103800704700BF08B5406AFFF7FAFF08BD00BF58
:10104800704700BF08B5406A836A43F04003836273
:10105800C36A43F00403C362FFF7F2FF08BD00BF91
:10106800F0B482B00023019390F82430012B00F0F3
:10107800BD80012380F824304B68062B19D80668F8
:10108800776B4FF4787292FAA2F5B5FA85F5013BC1
:1010980003FB05F51F24AC4027EA04050C6892FA07
:1010A800A2F2B2FA82F202FB03F39C402C4374636F
:1010B80034E00C2B19D80668376B4FF4787292FA23
:1010C800A2F5B5FA85F5073B03FB05F51F24AC40EF
:1010D80027EA04050C6892FAA2F2B2FA82F202FB3D
:1010E80003F39C402C43346318E00668F76A4FF416
:1010F800787292FAA2F5B5FA85F50D3B03FB05F572
:101108001F24AC4027EA04050C6892FAA2F2B2FA4E
:1011180082F202FB03F39C402C43F4620C68092C16
:1011280018D90768FB68382292FAA2F6B6FA86F64A
:101138000A3C04FB06F60725B54023EA05068D6838
:1011480092FAA2F2B2FA82F202FB04F39D4035430E
:10115800FD6016E006683769382393FAA3F5B5FAF7
:1011680085F505FB04F50722AA4027EA02058A68E7
:1011780093FAA3F3B3FA83F303FB04F39A402A43E5
:1011880032610B68103B012B26D80368194A934239
:101198001CD19A6812F4000F20D19A6842F4000218
:1011A8009A600B68102B1BD1134B1B68134AA2FBC8
:1011B80003239B0C03EB83035B00019302E0019B79
:1011C800013B0193019B002BF9D10AE0836A43F0AC
:1011D80020038362012304E0002302E0002300E0EF
:1011E8000023002280F82420184600E0022002B0E4
:1011F800F0BC7047002401400000002083DE1B4340
:1012080030B583B00023019303689A6812F0010F88
:101218002FD19A6842F001029A60174B1B68174A4F
:10122800A2FB03239B0C019302E0019B013B01936A
:10123800019B002BF9D1044602F0F2F9054611E0B2
:1012480002F0EEF9401B02280CD9A36A43F0100300
:10125800A362E36A43F00103E362002384F82430C5
:10126800012007E023689B6813F0010FE8D00020F5
:1012780000E0002003B030BD0000002083DE1B43E7
:1012880090F82430012B70D010B50446012380F863
:101298002430FFF7B5FF0346002861D1A26A22F483
:1012A800407222F0010242F48072A2622268304940
:1012B8008A4205D1A1F58061496811F4702F0ED1D9
:1012C800A16A21F48011A162516811F4806F1CD0C9
:1012D800A16A21F4405141F48051A16215E0A16A4C
:1012E80041F48011A16223498A4203D001F580614B
:1012F8008A420AD11F49496811F4806F05D0A16A52
:1013080021F4405141F48051A162A16A11F4805F37
:1013180004D0E16A21F00601E16201E00021E16206
:10132800002184F824106FF002011160226891688E
:1013380001F46021B1F5602F0DD10D498A4205D124
:10134800A1F58061496811F4702F04D1916841F4C6
:10135800A001916007E0916841F48011916002E07A
:10136800002284F82420184610BD0220704700BFD0
:101378000028014000240140F8B504684A4DAC42F9
:1013880003D005F58065AC4205D1474B5B6813F483
:10139800702F40F0838090F82440012C00F0818069
:1013A80017460E460446012380F82430FFF728FF2D
:1013B800054600286ED1A36A23F4706323F0010365
:1013C80043F48073A3622268384B9A4205D1A3F58F
:1013D80080635B6813F4702F0ED1A36A23F4801323
:1013E800A362536813F4806F1CD0A36A23F440539C
:1013F80043F48053A36215E0A36A43F48013A36205
:10140800294B9A4203D003F580639A420AD1264BAE
:101418005B6813F4806F05D0A36A23F4405343F448
:101428008053A362A36A13F4805F04D0E36A23F0B5
:101438000603E36201E00023E362002384F824301A
:10144800236A1B4A9A62236A1A4ADA62236A1A4A88
:101458001A6323686FF002021A602268936843F4E3
:10146800807393602168206A4C3132463B4601F014
:10147800B1FA23689A6802F46022B2F5602F04D1A9
:101488009A6842F4A0029A6009E09A6842F48012CD
:101498009A6004E0002384F8243000E001252846FF
:1014A800F8BD0220F8BD00BF00240140002801401B
:1014B800E90F00083D1000084D10000838B5036812
:1014C8009A6812F0010F1ED004469A6822F00102B1
:1014D8009A6002F0A5F805460EE002F0A1F8401B5C
:1014E800022809D9A36A43F01003A362E36A43F010
:1014F8000103E362012038BD23689B6813F0010FE4
:10150800EBD1002038BD002038BD00BF002800F016
:101518009D8070B50446836A23B9C36280F824307D
:1015280003F01CFF2046FFF7C9FFA36A13F0100F52
:1015380040F08680002840F08380A36A23F4885313
:1015480023F0020343F00203A36261682268404B60
:101558009A4206D1E369B3F5402F03D14FF4002333
:1015680000E0E3691943E568022393FAA3F3B3FAA9
:1015780083F305FA03F31943A368B3F5807F04D016
:10158800012B05D14FF4807303E04FF4807300E022
:1015980000236669012E15D165B9A569013D4FF48F
:1015A800604696FAA6F6B6FA86F6B54045F40065A2
:1015B8002B4307E0A56A45F02005A562E56A45F0DA
:1015C8000105E562556825F469452B435360226897
:1015D8009568204B2B400B439360A368B3F5807F3D
:1015E80001D0012B0AD12369013B4FF4700292FA12
:1015F800A2F2B2FA82F203FA02F200E000222568AF
:10160800EB6A23F470031343EB6223689A68124B66
:101618001340994208D10023E362A36A23F003032D
:1016280043F00103A36270BDA36A23F0120343F0E1
:101638001003A362E36A43F00103E362012070BD73
:10164800A36A43F01003A362012070BD0120704714
:10165800003C0140FDF7E1FFFE0E1FFF90F8383017
:10166800012B1CD030B4012580F83850022380F8B3
:10167800393004680A684B681A438B681A43CB6888
:101688001A430B691A434B691A438B691343636402
:1016980080F83950002380F83830184601E00220DD
:1016A800704730BC704700BF00F00700064AD36897
:1016B80023F4E0631B041B0C43EA002040F0BF60E6
:1016C80040F40030D060704700ED00E030B4164BB5
:1016D800DC68C4F30224C4F10705042D28BF0425DF
:1016E800231D062B01D9033C00E00024012303FA43
:1016F80005F5013D2940A140A340013B1A400A439A
:10170800002806DA00F00F001201D2B2074B1A5473
:1017180007E01201D2B200F1604000F5614080F8A4
:10172800002330BC704700BF00ED00E014ED00E07E
:10173800410900F01F0001238340024A42F821308A
:10174800704700BF00E100E0430900F01F000122DC
:1017580082402033014941F82320704700E100E02E
:101768000138B0F1807F0AD2064B5860F021064A52
:1017780082F823100020986007221A607047012021
:10178800704700BF10E000E000ED00E0042805D13C
:10179800054A136843F0040313607047024A13684C
:1017A80023F004031360704710E000E0704700BFA7
:1017B80008B5FFF7FBFF08BDF0B583B000273C462E
:1017C800E2E00122A2400B681340934240F0DB8024
:1017D8004D68122D2DD00BD8022D27D003D85DB31C
:1017E800012D1ED035E0032D30D0112D1BD030E057
:1017F800684EB54220D008D8A6F58016B5421BD051
:1018080006F58036B54224D116E0634EB54213D0B2
:1018180006F58036B5420FD0A6F58016B54218D128
:101828000AE0CF6815E0CF68043712E0CF680837C0
:101838000FE0CF680C370CE08D684DB1012D02D157
:101848000261082705E04261082702E0002700E05E
:101858000427FF2B01D8844601E000F1040CFF2B7C
:1018680002D84FEA840E03E0A4F1080E4FEA8E0E68
:10187800DCF800600F2202FA0EF226EA020507FAE7
:101888000EF22A43CCF800204A6812F0805F7AD022
:10189800424A956945F001059561926902F0010295
:1018A8000192019AA208961C3D4D55F8266004F055
:1018B800030E4FEA8E0E0F2505FA0EF526EA0506E9
:1018C800384DA8421FD005F58065A84219D005F506
:1018D8008065A84213D005F58065A8420DD005F5AE
:1018E8008065A84207D005F58065A84201D1052585
:1018F8000AE0062508E0042506E0032504E00225A1
:1019080002E0012500E0002505FA0EF53543023214
:10191800234E46F822504A6812F4803F04D0224DE4
:101928002A681A432A6004E01F4D2A6822EA030243
:101938002A604A6812F4003F04D01B4D6A681A43B3
:101948006A6004E0184D6A6822EA03026A604A681D
:1019580012F4801F04D0144DAA681A43AA6004E048
:10196800114DAA6822EA0302AA604A6812F4001F0D
:1019780004D00D4DEA681343EB6004E00A4DEA68B1
:1019880022EA0303EB6001340F2C7FF61AAF03B091
:10199800F0BD00BF0000211000003110001002400F
:1019A80000000140000801400004014083680B4228
:1019B80001D0012070470020704700BF0AB10161C3
:1019C80070470904016170470F4B1A6842F0010221
:1019D8001A6059680D4A0A405A601A6822F08472DF
:1019E80022F480321A601A6822F480221A605A6837
:1019F80022F4FE025A604FF41F029A604FF0006210
:101A0800034B9A60704700BF001002400000FFF8C7
:101A180000ED00E030B4036A23F001030362036AB7
:101A28004468826922F073020D682A4323F0020396
:101A38008D682B43104DA84203D005F50065A842D8
:101A480005D123F00803CD682B4323F004030A4D86
:101A5800A84203D005F50065A84205D124F44074D6
:101A68004D692C438D692C43446082614A68426306
:101A7800036230BC704700BF002C014030B4036AD9
:101A880023F480730362036A4468C26922F0730214
:101A98000D682A4323F400738D6843EA0523124D29
:101AA800A84203D005F50065A84206D123F40063D7
:101AB800CD6843EA052323F480630B4DA84203D085
:101AC80005F50065A84207D124F440544D6944EA5D
:101AD80005148D6944EA05144460C2614A68C2630A
:101AE800036230BC704700BF002C014030B4036A69
:101AF80023F480530362036A4468C26922F4E6420D
:101B08000D6842EA052223F400538D6843EA053341
:101B1800094DA84203D005F50065A84204D124F474
:101B280080444D6944EA85144460C2614A6802648D
:101B3800036230BC704700BF002C0140704700BFF3
:101B4800022380F839300268136843F001031360F8
:101B5800012380F839300020704700BF022380F845
:101B680039300368196A41F21112114208D1196A11
:101B780040F24442114203D11A6822F001021A606D
:101B8800012380F839300020704700BF704700BF3C
:101B98000368224A904212D002F5006290420ED0A9
:101BA800B0F1804F0BD0A2F59832904207D002F5E1
:101BB8008062904203D002F58062904203D123F004
:101BC80070034A681343154A904212D002F5006226
:101BD80090420ED0B0F1804F0BD0A2F598329042CF
:101BE80007D002F58062904203D002F580629042ED
:101BF80003D123F44073CA68134303608B68C3623C
:101C08000B688362054B984203D003F50063984242
:101C180001D10B690363012343617047002C014024
:101C2800C0B110B5044690F8393013F0FF0F04D155
:101C3800002380F83830FFF781FF022384F8393019
:101C4800214651F8040BFFF7A3FF012384F839302C
:101C5800002010BD01207047C0B110B5044690F8AF
:101C6800393013F0FF0F04D1002380F83830FFF724
:101C78008DFF022384F83930214651F8040BFFF711
:101C880087FF012384F83930002010BD01207047F8
:101C980030B4036A23F010030362036A446882695C
:101CA80022F4E6420D6842EA052223F020038D68FB
:101CB80043EA0513114DA84203D005F50065A84273
:101CC80006D123F08003CD6843EA051323F04003CF
:101CD8000A4DA84203D005F50065A84207D124F4AF
:101CE80040644D6944EA85048D6944EA850444608A
:101CF80082614A688263036230BC7047002C0140ED
:101D080038B590F83830012B66D00D4604460123CB
:101D180080F83830022380F839300C2A55D8DFE8AB
:101D280002F0075454541A5454542E545454410035
:101D38000068FFF76FFE2268936943F00803936118
:101D48002268936923F004039361226891692B69DF
:101D58000B43936139E00068FFF79AFF22689369A3
:101D680043F4006393612268936923F48063936169
:101D780022689369296943EA0123936125E0006891
:101D8800FFF77CFE2268D36943F00803D361226819
:101D9800D36923F00403D3612268D1692B690B430B
:101DA800D36112E00068FFF7A1FE2268D36943F40B
:101DB8000063D3612268D36923F48063D361226806
:101DC800D369296943EA0123D361012384F83930AF
:101DD800002084F8380038BD022038BD10B4012333
:101DE8008B40046A24EA03030362036A8A401A43A5
:101DF80002625DF8044B704710B504460068012282
:101E0800FFF7ECFF23680C4A934205D002F5006205
:101E1800934203D1012202E0012200E000221AB11C
:101E28005A6C42F400425A642268136843F0010372
:101E38001360002010BD00BF002C014010B50446FF
:101E48000C291FD8DFE801F0071E1E1E0D1E1E1EDE
:101E5800131E1E1E19000268D36843F00203D360E4
:101E680010E00268D36843F00403D3600AE0026814
:101E7800D36843F00803D36004E00268D36843F0F2
:101E88001003D36020680122FFF7A8FF23680C4ADB
:101E9800934205D002F50062934203D1012202E089
:101EA800012200E000221AB15A6C42F400425A643E
:101EB8002268136843F001031360002010BD00BFBF
:101EC800002C014000BF00BF00BFFBE708B502F0CF
:101ED80087FB02F095F8FEE708B502F081FB02F0F7
:101EE8008FF8FEE708B502F07BFB02F089F8FEE701
:101EF80008B502F075FB02F083F8FEE700BF00BFEB
:101F080000BFFBE7704700BF00BF00BF00BFFBE793
:101F180008B501F07DFBFFF74BFC08BD08B502488A
:101F280001F0F0FC08BD00BF0404002008B5024819
:101F380001F070FD08BD00BF0404002008B5024888
:101F480000F074FD08BD00BF7804002008B5024801
:101F580000F06CFD08BD00BF4004002008B5024831
:101F680000F064FD08BD00BF1803002008B5024852
:101F780000F05CFD08BD00BF5003002008B5024812
:101F880001F048FD08BD00BF0404002008B50E4B51
:101F98005B6913F4806F09D10B4B5B6913F4006F15
:101FA80004D1094B5B6913F4805F0BD002F02EFD5E
:101FB800054B4FF480625A614FF400625A614FF446
:101FC80080525A6108BD00BF0004014008B50C4B9F
:101FD8005B6913F0200F09D1094B5B6913F0400FBF
:101FE80004D1074B5B6913F0800F08D002F006FAA2
:101FF800034B20225A6140225A6180225A6108BD4F
:102008000004014008B50A4B1B686FF002021A6110
:102018006FF004021A616FF008021A616FF0100283
:102028001A6102F0FBFC0348FFF72AF908BD00BF5C
:10203800600200200801002008B50A4B1B686FF0F9
:1020480002021A616FF004021A616FF008021A6145
:102058006FF010021A6102F0D9F90348FFF710F97E
:1020680008BD00BF04020020D800002008B50248BF
:1020780000F0DCFC08BD00BF4801002008B502489C
:1020880000F0D4FC08BD00BFA0000020024B1B6874
:102098006FF001021A6170479C01002030B583B0CF
:1020A8000446036813F0010F00F09680B24B5B689A
:1020B80003F00C03042B0AD0AF4B5B6803F00C034E
:1020C800082B1BD1AC4B5B6813F4803F16D04FF440
:1020D800003393FAA3F3A84B1A684FF4003393FA2A
:1020E800A3F3B3FA83F303F01F0322FA03F313F005
:1020F800010F71D06368002B6ED19EE26368B3F55F
:10210800803F05D19C4A136843F48033136026E06E
:1021180063B903F1804303F504331A6822F480326B
:102128001A601A6822F480221A6018E0B3F5A02F0A
:102138000CD103F18043A3F53C331A6842F48022A2
:102148001A601A6842F480321A6008E08A4B1A68EA
:1021580022F480321A601A6822F480221A606368B6
:10216800EBB101F05DFA054605E001F059FA401BB4
:10217800642800F264824FF4003393FAA3F37E4B91
:102188001A684FF4003393FAA3F3B3FA83F303F016
:102198001F0322FA03F313F0010FE6D01CE001F04D
:1021A8003FFA054605E001F03BFA401B642800F2BF
:1021B80048824FF4003393FAA3F36F4B1A684FF435
:1021C800003393FAA3F3B3FA83F303F01F0322FA5D
:1021D80003F313F0010FE6D1236813F0020F00F0A8
:1021E8009080654B5B6813F00C0F0AD0624B5B68FC
:1021F80003F00C03082B27D15F4B5B6813F4803F77
:1022080022D1022393FAA3F35B4B1A68022393FAB1
:10221800A3F3B3FA83F303F01F0322FA03F313F0D3
:10222800010F03D02369012B40F00D825248036847
:1022380023F0F8016369F82292FAA2F2B2FA82F264
:1022480093400B4303605CE023699BB3012292FA3D
:10225800A2F3B3FA83F39B0003F1844303F58403E9
:102268001A6001F0DDF9054605E001F0D9F9401BD7
:10227800022800F2EA81022393FAA3F33E4B1A687C
:10228800022393FAA3F3B3FA83F303F01F0322FAAA
:1022980003F313F0010FE8D03748036823F0F8017F
:1022A8006369F82292FAA2F2B2FA82F293400B43DF
:1022B800036026E0012393FAA3F3B3FA83F39B00A8
:1022C80003F1844303F5840300221A6001F0A8F99E
:1022D800054605E001F0A4F9401B022800F2B78189
:1022E800022393FAA3F3244B1A68022393FAA3F365
:1022F800B3FA83F303F01F0322FA03F313F0010F79
:10230800E8D1236813F0080F52D0A3693BB3012228
:1023180092FAA2F3B3FA83F3184941F8232001F0A3
:102328007FF9054605E001F07BF9401B022800F221
:102338009081022393FAA3F293FAA3F20E4A526A07
:1023480093FAA3F3B3FA83F303F01F0322FA03F318
:1023580013F0010FE7D0012001F068F928E001230C
:1023680093FAA3F3B3FA83F30021044A42F8231043
:1023780001F056F9054609E0001002408004424287
:1023880001F04EF9401B022800F26581022393FAFE
:10239800A3F293FAA3F2B94A526A93FAA3F3B3FAEF
:1023A80083F303F01F0322FA03F313F0010FE7D1BD
:1023B800236813F0040F00F09F80B04BDA6942F0F5
:1023C8008052DA61DB6903F080530193019BAC4AC8
:1023D800136843F48073136001F022F9054605E0A1
:1023E80001F01EF9401B642800F23781A44B1B68DA
:1023F80013F4807FF4D0E368012B05D19F4A136A58
:1024080043F00103136222E063B903F1804303F54B
:1024180004331A6A22F001021A621A6A22F00402CC
:102428001A6214E0052B09D1944B1A6A42F004028F
:102438001A621A6A42F001021A6208E08F4B1A6A9D
:1024480022F001021A621A6A22F004021A62E36890
:102458004BB301F0E5F8054607E001F0E1F8401B51
:1024680041F28833984200F2FA80022393FAA3F2E9
:1024780093FAA3F3B3FA83F343F040035B09022B07
:1024880002D17E4B1A6A01E07C4B5A6A022393FA06
:10249800A3F3B3FA83F303F01F0322FA03F313F051
:1024A800010FDAD028E001F0BBF8054607E001F09B
:1024B800B7F8401B41F28833984200F2D2800223D9
:1024C80093FAA3F293FAA3F3B3FA83F343F0400326
:1024D8005B09022B02D1694B1A6A01E0674B5A6A01
:1024E800022393FAA3F3B3FA83F303F01F0322FA48
:1024F80003F313F0010FDAD1E369002B00F0B38086
:102508005E4A526802F00C02082A00F0AE80022BE4
:1025180068D14FF0807393FAA3F3B3FA83F39B0067
:1025280003F1844303F5840300221A6001F078F86C
:10253800054605E001F074F8401B022800F2978078
:102548004FF0007393FAA3F34C4B1A684FF00073E3
:1025580093FAA3F3B3FA83F303F01F0322FA03F306
:1025680013F0010FE6D1236AB3F5803F06D1434942
:102578004B6823F40032A36813434B603F48436819
:1025880023F47411236A626A13430B4343604FF0C8
:10259800807393FAA3F3B3FA83F39B0003F18443A4
:1025A80003F5840301221A6001F03AF8044604E0B6
:1025B80001F036F8001B02285BD84FF0007393FA3D
:1025C800A3F32E4B1A684FF0007393FAA3F3B3FAF0
:1025D80083F303F01F0322FA03F313F0010FE7D08C
:1025E800002049E04FF0807393FAA3F3B3FA83F322
:1025F8009B0003F1844303F5840300221A6001F071
:102608000FF8044604E001F00BF8001B022832D84A
:102618004FF0007393FAA3F3184B1A684FF0007346
:1026280093FAA3F3B3FA83F303F01F0322FA03F335
:1026380013F0010FE7D100201EE001201CE0032069
:102648001AE0032018E0012016E0032014E003201C
:1026580012E0032010E003200EE003200CE003202A
:102668000AE0032008E0002006E0012004E003203F
:1026780002E0032000E0032003B030BD0010024058
:102688000070004030B486B01E4D02AC28686968FE
:10269800AA68EB680FC42B8AADF804301A4B5A6845
:1026A80002F00C03082B28D102F470134FF47011B8
:1026B80091FAA1F1B1FA81F1CB4006A90B4413F8C4
:1026C800103C12F4803F14D00F4A526802F40032D2
:1026D8004FF4003191FAA1F1B1FA81F1CA4006A98B
:1026E8000A4412F8140C094AB2FBF0F003FB00F09C
:1026F80004E0074800FB03F000E0044806B030BCE3
:10270800704700BF445E00080010024000127A00C3
:1027180000093D0070B5734B1B6803F007038B423B
:102728000BD2704A136823F007030B431360136836
:1027380003F007038B4240F0C580036813F0020FD3
:1027480006D0694C636823F0F00283681343636022
:102758000D460446036813F0010F75D04268012A3C
:1027680013D14FF4003393FAA3F35F4B19684FF476
:10277800003393FAA3F3B3FA83F303F01F0321FAA8
:1027880003F313F0010F27D19EE0022A13D14FF073
:10279800007393FAA3F3544B19684FF0007393FA3C
:1027A800A3F3B3FA83F303F01F0321FA03F313F03F
:1027B800010F11D18AE0022393FAA3F34A4B196857
:1027C800022393FAA3F3B3FA83F303F01F0321FA66
:1027D80003F313F0010F7BD043494B6823F0030345
:1027E80013434B6000F01CFF06466368012B0ED1B3
:1027F80006E000F015FF801B41F28833984269D843
:10280800394B5B6803F00C03042BF2D11CE0022B5C
:1028180015D106E000F004FF801B41F2883398428E
:102828005AD8314B5B6803F00C03082BF2D10BE04C
:1028380000F0F6FE801B41F2883398424ED82A4BAE
:102848005B6813F00C0FF3D1264B1B6803F00703EA
:10285800AB420AD9234A136823F007032B431360BA
:10286800136803F00703AB423AD1236813F0040F4F
:1028780006D01D494B6823F4E062E36813434B60BC
:10288800236813F0080F07D0174A536823F46053DE
:10289800216943EAC1035360FFF7F4FE124B5B68FA
:1028A80003F0F003F02292FAA2F2B2FA82F2D340D5
:1028B8000E4AD35CD8400E4B1860002000F082FE10
:1028C800002070BD012070BD012070BD012070BDC9
:1028D800012070BD032070BD032070BD032070BDB2
:1028E800012070BD0020024000100240585E000820
:1028F80000000020014B1868704700BF000000204E
:1029080008B5FFF7F7FF074B5B6803F4E0634FF484
:10291800E06292FAA2F2B2FA82F2D340024AD35C9F
:10292800D84008BD00100240685E000808B5FFF7EF
:10293800E1FF074B5B6803F460534FF4605292FA6F
:10294800A2F2B2FA82F2D340024AD35CD84008BD60
:1029580000100240685E000810B4046863604368B1
:10296800102B04D103689A600368D96003E00368F8
:1029780099600368DA605DF8044B704720B310B4BF
:10298800034690F821200AB980F82020022283F813
:1029980021201C68226822F47F5222F030025868F5
:1029A80099680843D968084319690843596908436D
:1029B80099690843D96901430A4322600020586392
:1029C800012283F8212001E0012070475DF8044BC3
:1029D800704700BF38B590F82040012C24D0044639
:1029E800012084F82000022084F821002568286846
:1029F80020F0010028602046FFF7AEFF2268136828
:102A080043F0020313602268136843F00403136061
:102A18002268136843F0080313602268136843F0C0
:102A280001031360002038BD022038BD10B50446EC
:102A38000368B64A934248D902F560721268B449ED
:102A48008B423CD014318B4237D014318B4231D079
:102A580014318B422BD014318B4225D014318B4248
:102A68001FD014318B4219D001F562718B4213D0FB
:102A780014318B420ED014318B4208D014318B4262
:102A880002D14FF400411BE04FF4002118E04FF44D
:102A9800006115E0802113E0082111E04FF000618A
:102AA8000EE04FF400010BE04FF4002108E04FF472
:102AB800004105E04FF4006102E0802100E00821B8
:102AC8000A4214BF0122002246E0924A1268904945
:102AD8008B423CD014318B4237D014318B4231D0E9
:102AE80014318B422BD014318B4225D014318B42B8
:102AF8001FD014318B4219D001F562718B4213D06B
:102B080014318B420ED014318B4208D014318B42D1
:102B180002D14FF400411BE04FF4002118E04FF4BC
:102B2800006115E0802113E0082111E04FF00061F9
:102B38000EE04FF400010BE04FF4002108E04FF4E1
:102B4800004105E04FF4006102E0802100E0082127
:102B58000A4214BF01220022002A00F0A2801A684B
:102B680012F0080F00F09D801A6822F008021A601F
:102B78002368664A934243D9783A93423CD0143248
:102B8800934237D01432934231D0143293422BD02F
:102B98001432934225D0143293421FD014329342F8
:102BA80019D002F56272934213D0143293420ED0B8
:102BB8001432934208D01432934202D14FF40042A7
:102BC8001BE04FF4002218E04FF4006215E0802269
:102BD80013E0082211E04FF000620EE04FF400020B
:102BE8000BE04FF4002208E04FF4004205E04FF4F8
:102BF800006202E0802200E00822474B5A6042E06F
:102C0800434A93423CD01432934237D01432934211
:102C180031D0143293422BD01432934225D014323F
:102C280093421FD01432934219D002F56272934234
:102C380013D0143293420ED01432934208D0143277
:102C4800934202D14FF400421BE04FF4002218E0F7
:102C58004FF4006215E0802213E0082211E04FF0E3
:102C680000620EE04FF400020BE04FF4002208E08F
:102C78004FF4004205E04FF4006202E0802200E0D9
:102C88000822244B5A60636B43F0010363630423F7
:102C980084F82130002384F82030236B0BB12046C0
:102CA80098472368194A934251D902F5607212680D
:102CB80017498B4245D014318B4240D014318B4296
:102CC8003AD014318B4234D014318B422ED0143187
:102CD8008B4228D014318B4222D001F562718B428D
:102CE8001CD014318B420ED014318B4208D01431D1
:102CF8008B4202D14FF4804124E04FF4802121E03F
:102D08004FF480611EE040211CE000BF80000240BB
:102D1800080002400000024000040240042111E0C3
:102D28004FF080610EE04FF480010BE04FF48021FA
:102D380008E04FF4804105E04FF4806102E0402153
:102D480000E004210A4214BF0122002246E0B54AED
:102D58001268B5498B423CD014318B4237D01431BC
:102D68008B4231D014318B422BD014318B4225D079
:102D780014318B421FD014318B4219D001F5627186
:102D88008B4213D014318B420ED014318B4208D0B1
:102D980014318B4202D14FF480411BE04FF4802163
:102DA80018E04FF4806115E0402113E0042111E0A0
:102DB8004FF080610EE04FF480010BE04FF480216A
:102DC80008E04FF4804105E04FF4806102E04021C3
:102DD80000E004210A4214BF01220022002A00F068
:102DE8009F801A6812F0040F00F09A801A6812F097
:102DF800200F03D11A6822F004021A6023688B4A54
:102E0800934243D9783A93423CD01432934237D014
:102E18001432934231D0143293422BD0143293425D
:102E280025D0143293421FD01432934219D002F5A0
:102E38006272934213D0143293420ED014329342EA
:102E480008D01432934202D14FF480421BE04FF471
:102E5800802218E04FF4806215E0402213E004223B
:102E680011E04FF080620EE04FF480020BE04FF467
:102E7800802208E04FF4804205E04FF4806202E0CF
:102E8800402200E004226A4B5A6042E0664A9342BC
:102E98003CD01432934237D01432934231D014329A
:102EA80093422BD01432934225D0143293421FD030
:102EB8001432934219D002F56272934213D014323D
:102EC80093420ED01432934208D01432934202D166
:102ED8004FF480421BE04FF4802218E04FF48062E8
:102EE80015E0402213E0042211E04FF080620EE06A
:102EF8004FF480020BE04FF4802208E04FF4804248
:102F080005E04FF4806202E0402200E00422454BD5
:102F18005A60112384F82130E36A0BB120469847A0
:102F28002368424A934248D902F5607212683E49C2
:102F38008B423CD014318B4237D014318B4231D084
:102F480014318B422BD014318B4225D014318B4253
:102F58001FD014318B4219D001F562718B4213D006
:102F680014318B420ED014318B4208D014318B426D
:102F780002D14FF400511BE04FF4003118E04FF438
:102F8800007115E0202113E0022111E04FF00071DB
:102F98000EE04FF400110BE04FF4003108E04FF45D
:102FA800005105E04FF4007102E0202100E0022109
:102FB8000A4214BF012200224FE01A4A12681A4935
:102FC8008B4245D014318B4240D014318B423AD0D9
:102FD80014318B4234D014318B422ED014318B42B1
:102FE80028D014318B4219D001F562718B4213D06D
:102FF80014318B420ED014318B4208D014318B42DD
:1030080002D14FF4005124E04FF4003121E04FF495
:1030180000711EE020211CE002211AE04FF000712F
:1030280017E000BF00000240080002408000024094
:10303800000402404FF400110BE04FF4003108E0A7
:103048004FF4005105E04FF4007102E0202100E048
:1030580002210A4214BF01220022002A00F0A480A3
:103068001A6812F0020F00F09F801A6812F0200F01
:1030780003D11A6822F002021A6023684B4A93426D
:1030880043D9783A93423CD01432934237D0143221
:10309800934231D0143293422BD01432934225D02C
:1030A800143293421FD01432934219D002F562723F
:1030B800934213D0143293420ED01432934208D064
:1030C8001432934202D14FF400521BE04FF4003205
:1030D80018E04FF4007215E0202213E0022211E0FC
:1030E8004FF000720EE04FF400120BE04FF4003284
:1030F80008E04FF4005205E04FF4007202E020228D
:1031080000E002222A4B5A6042E02A4A93423CD00D
:103118001432934237D01432934231D0143293424E
:103128002BD01432934225D0143293421FD014323C
:10313800934219D002F56272934213D0143293422B
:103148000ED01432934208D01432934202D14FF475
:1031580000521BE04FF4003218E04FF4007215E003
:10316800202213E0022211E04FF000720EE04FF42B
:1031780000120BE04FF4003208E04FF4005205E073
:103188004FF4007202E0202200E002220A4B5A604B
:10319800636B6363012384F82130002384F82030B3
:1031A800A36A0BB12046984710BD00BF80000240BB
:1031B8000004024008000240000002402DE9F843E4
:1031C800814601680B6923F44052C36813430B61BD
:1031D800826803691A43436913430168CA6822F481
:1031E800B05222F00C021343CB6001684B6923F400
:1031F8004072836913434B6105685B4B9D4259D10B
:10320800FFF794FB00EB800000EB8000D9F8044046
:10321800A400B0FBF4F4554EA6FB04346409240161
:10322800FFF784FB00EB800000EB8000D9F8043046
:103238009B00B0FBF3F7FFF779FB00EB800000EB96
:103248008000D9F804309B00B0FBF3F3A6FB0323FE
:103258005B094FF0640808FB13731B013233A6FBAC
:1032680003235B0903F0F0031C44FFF75FFB00EB4B
:10327800800000EB8000D9F804309B00B0FBF3F726
:10328800FFF754FB00EB800000EB8000D9F8043016
:103298009B00B0FBF3F3A6FB03235B0908FB137346
:1032A8001B013233A6FB0323C3F343131C44AC6056
:1032B800BDE8F883FFF724FB00EB800000EB8000FB
:1032C800D9F80440A400B0FBF4F4284EA6FB04345B
:1032D80064092401FFF714FB00EB800000EB800079
:1032E800D9F804309B00B0FBF3F7FFF709FB00EBBC
:1032F800800000EB8000D9F804309B00B0FBF3F3AA
:10330800A6FB03235B094FF0640808FB13731B013A
:103318003233A6FB03235B0903F0F0031C44FFF7D9
:10332800EFFA00EB800000EB8000D9F804309B0036
:10333800B0FBF3F7FFF7E4FA00EB800000EB800046
:10334800D9F804309B00B0FBF3F3A6FB03235B0919
:1033580008FB13731B013233A6FB0323C3F3431388
:103368001C44AC60BDE8F883003801401F85EB5170
:1033780058B310B5044690F8393013F0FF0F04D154
:10338800002380F8383002F05DF8022384F83930E1
:103398002268D36823F40053D3602046FFF70EFF5A
:1033A8002268136923F4904313612268536923F058
:1033B8002A0353612268D36843F40053D360002082
:1033C800E063012384F8393010BD0120704700BF45
:1033D80010B50446134690F83920D2B2012A01D01C
:1033E800222A36D1002936D0002B36D094F838203E
:1033F800012A34D0012284F838202162A384E3848E
:103408000022E26394F83920D2B2222A03D1322270
:1034180084F8392002E0122284F83920226B1148FE
:103428009062226B1048D062226B104810632268A9
:10343800206B0432FFF7CEFA23686FF040021A605F
:103448002268536943F080035361002084F83800F0
:1034580010BD022010BD012010BD012010BD0220AA
:1034680010BD00BF1135000851350008AD35000802
:1034780038B504460D46134690F83920D2B2012AD1
:1034880001D0122A32D1002D32D0002B32D094F83C
:103498003820012A30D0012284F83820A562A3857B
:1034A8000022E26394F83920D2B2122A03D13222E0
:1034B80084F8392002E0222284F83920626B0F490F
:1034C8009162626B0E49D162626B0E491163216889
:1034D800606B04312A46FFF77DFA2268536943F08E
:1034E80040035361002084F8380038BD022038BDFD
:1034F800012038BD012038BD022038BD5D350008E7
:103508009D350008AD35000808B5436A02681268A1
:1035180012F0200F12D10022DA8419684A6922F0C9
:1035280080024A611968CA6842F04002CA600122F2
:1035380083F83920184601F005FB08BD184601F04C
:1035480001FB08BD704700BF08B5406AFFF7FAFFE6
:1035580008BD00BF08B5436A0268126812F0200F60
:1035680012D10022DA8519684A6922F040024A61BC
:1035780093F83920D2B2322A03D1122283F83920A3
:1035880002E0012283F83920184601F0CDFA08BD7F
:10359800704700BF08B5406AFFF7FAFF08BD00BFD3
:1035A800704700BF08B5406A0023C385C384012360
:1035B80080F83930C36B43F01003C363FFF7F0FFA3
:1035C80008BD00BF10B50446FFF794F9064BA3FBEE
:1035D80000308009FEF7C4F84FF0FF302146002282
:1035E800FEF774F8002010BDD34D621008B5074AE5
:1035F800136843F0100313600320FEF755F800200A
:10360800FFF7E0FF01F06CFE002008BD002002403B
:10361800024A136801331360704700BF840000201A
:10362800014B1868704700BF8400002010B582B0B5
:103638000190FFF7F5FF0446FFF7F2FF001B019B1F
:103648009842F9D302B010BD438D9BB22BB90268E2
:10365800536823F4806353600AE00268436A591C84
:1036680041621B781361438D9BB2013B9BB243853A
:1036780000207047438D9BB253B10268436A591CBE
:1036880041621B781361438D9BB2013B9BB243851A
:1036980000207047438D9BB253B10268436A591C9E
:1036A80041621B781361438D9BB2013B9BB24385FA
:1036B80000207047438D9BB253B1436A5A1C426243
:1036C800026812691A70438D9BB2013B9BB2438515
:1036D80000207047438D9BB253B1436A5A1C426223
:1036E800026812691A70438D9BB2013B9BB24385F5
:1036F8000020704782B003685A6901929B69019360
:10370800019B002002B07047704700BF08B50168F0
:103718004A6822F4E0624A6001684A6922F48062D9
:103728004A6101680A6822F480620A60202280F8EF
:103738003520FFF7E9FF002008BD00BF704700BF34
:1037480000B583B001684A6822F4E0624A60016803
:103758004A6901920A6842F001020A600192019ADC
:1037680001680A6822F480620A60202280F8352005
:10377800FFF7E4FF002003B05DF804FB704700BFCB
:1037880008B5438D9BB25BB10268436A591C41621C
:103798001B781361438D9BB2013B9BB2438519E0B3
:1037A8000268536823F4E06353600268136843F4C3
:1037B8000073136090F83630DBB2402B05D120231C
:1037C80080F83530FFF7DAFF04E0202380F8353041
:1037D80001F0EAFA002008BD704700BF08B5438D24
:1037E8009BB2032B0BD9436A5A1C426202681269C6
:1037F8001A70438D9BB2013B9BB2438528E0023B84
:10380800012B05D80268536823F4806353601FE0D6
:103818000268536823F4E0635360436A5A1C4262A7
:10382800026812691A70438D9BB2013B9BB24385B3
:1038380090F83630DBB2402B05D1202380F83530A4
:10384800FFF7CAFF04E0202380F8353001F0B8FA0A
:10385800002008BD08B5438D9BB2032B10D1026828
:10386800136823F480631360436A5A1C4262026837
:1038780012691A70438D9BB2013B9BB243853FE0AE
:10388800438D9BB2022B30D10268536823F44073F6
:1038980053600268136843F400731360436A5A1C48
:1038A8004262026812691A70438D9BB2013B9BB257
:1038B8004385436A5A1C4262026812691A70438D32
:1038C8009BB2013B9BB2438590F83630DBB2402B6C
:1038D80005D1202380F83530FFF77EFF10E0202344
:1038E80080F8353001F06CFA0AE0436A5A1C4262EB
:1038F800026812691A70438D9BB2013B9BB24385E3
:10390800002008BD38B590F83630DBB2102B04D053
:1039180090F83630DBB2402B36D103689A6912F042
:10392800040F18D05C695A6802F480615A6902F081
:1039380004025B6803F4007314F0800F04D019B11B
:1039480012B9FFF781FE38BD002A62D0002B60D083
:10395800FFF716FF38BD5C695A6802F480615A693E
:1039680002F004025B6803F4007314F0400F04D003
:1039780019B112B9FFF732FF38BD002A49D0002B20
:1039880047D0FFF767FF38BD03685D695A6802F4DE
:103998000072596901F010019C6904F0040415F0E3
:1039A800020F03D012B1FFF7A5FE38BD19B112B14D
:1039B800FFF7C6FE38BDB4B15C695A6802F480618D
:1039C8005A6902F004025B6803F4007314F0800F74
:1039D80004D019B112B9FFF74DFE38BDCAB1C3B151
:1039E800FFF758FE38BD5C695A6802F480615A696D
:1039F80002F004025B6803F4007314F0400F04D073
:103A080019B112B9FFF756FE38BD12B10BB1FFF765
:103A180061FE38BD10B50446036859695A6811F447
:103A2800807F0FD002F4807262B1826B42F0010293
:103A380082635A6922F480725A610268136843F4F7
:103A480000431360236859695A6802F4807211F4BC
:103A5800007F08D03AB1A26B42F00202A2635A6911
:103A680022F400725A6122685169536803F4807322
:103A780011F4806F1ED0EBB194F83630DBB2618D53
:103A880089B294F83500C0B2202B06D129B9212873
:103A980003D12046FFF73AFE0CE0A36B43F0040382
:103AA800A363136843F4007313602268536923F413
:103AB80080635361236859695A6802F4807211F46B
:103AC800006F08D03AB1A26B42F00802A2635A69AB
:103AD80022F400625A61A36B53B1202384F8353075
:103AE8002268136823F400631360204601F074F918
:103AF80010BD00BFF0B583B00446036813F0010F92
:103B08006ED0474BDA6942F08052DA61DB6903F024
:103B180080530193019B434A136843F480731360F5
:103B2800FFF77EFD054604E0FFF77AFD401B642899
:103B38006ED83C4B1B6813F4807FF5D0384B1B6A5A
:103B480013F4407345D0626802F440729A4240D040
:103B58003348016A21F440764FF4803393FAA3F294
:103B6800B2FA82F2304D012745F8227093FAA3F396
:103B7800B3FA83F3002245F82320066211F0010FFF
:103B880027D0FFF74DFD054606E0FFF749FD401B2E
:103B980041F2883398423DD8022393FAA3F293FA6C
:103BA800A3F3B3FA83F343F040035B09022B02D17A
:103BB8001B4B1A6A01E01A4B5A6A022393FAA3F3C1
:103BC800B3FA83F303F01F0322FA03F313F0010F90
:103BD800DBD013490B6A23F44072636813430B620A
:103BE800236813F0020F06D00D494B6823F44042B6
:103BF800A36813434B60236813F0100F0CD00849D7
:103C08004B6823F48002636913434B60002004E08F
:103C1800032002E0032000E0002003B0F0BD00BF55
:103C2800001002400070004000044242704700BF8C
:103C380068B310B504460368DA6812F0010F03D0C0
:103C4800DB6813F0020F24D1637B13F0FF0F04D15C
:103C5800002323732046FFF7E9FF022363732368D9
:103C680045F255521A6021684B6823F007026368D1
:103C780013434B6021688B6823F47F6323F00F03A1
:103C8800A26813438B6001236373002010BD0120D9
:103C98007047012010BD00BF037B012B0FD002230A
:103CA800437303684CF6CC421A6003684AF6AA22AA
:103CB8001A600123437300230373184670470220D8
:103CC800704700BF38B5037B012B20D00446012381
:103CD800037302234373FFF7A3FC05460AE0FFF7CB
:103CE8009FFC401BB0F57A7F04D903206073002342
:103CF800237338BD2368DA6812F0020FEFD14AF651
:103D0800AA221A60012363730020207338BD0220A1
:103D180038BD00BF10B584B01D4B5A6942F002028D
:103D28005A615B6903F002030093009B002211466D
:103D38003B20FDF7CBFC3B20FDF7FAFC1548164B62
:103D4800036000238360C36043614FF46022C26153
:103D5800436001230361FDF7D9FB08B101F024F9A1
:103D68000A230193002303930123029301A909481D
:103D7800FDF776F908B101F017F9064C2046FDF772
:103D88007FFA012205492046FDF7F6FA04B010BD76
:103D980000100240D8000020003C0140980000209C
:103DA80010B53B20FDF7D0FC034B1C88A4B23B2088
:103DB800FDF7BEFC204610BD980000200122014BF3
:103DC8009A7170479800002010B584B0234B5A6947
:103DD80042F001025A615B6903F001030093009B02
:103DE800022201210B20FDF771FC0B20FDF7A0FC3E
:103DF8001B481C4B03604FF4807383600023C3602F
:103E080043614FF46022C261436002230361FDF7FE
:103E18007DFB08B101F0C8F80B230193012302933D
:103E280001A90F48FDF71CF908B101F0BDF80C23F2
:103E380001930223029301A90948FDF711F908B17A
:103E480001F0B2F8064C2046FDF71AFA022206499C
:103E58002046FDF791FA04B010BD00BF00100240E3
:103E680008010020002401404001002010B50B206B
:103E7800FDF76AFC034B5C88A4B20B20FDF758FCE5
:103E8800204610BD4001002010B50B20FDF75CFC5A
:103E9800034B1C88A4B20B20FDF74AFC204610BD3A
:103EA800400100200122014B9A7170474001002017
:103EB80010B586B00F4B9A6942F008029A619B6967
:103EC80003F008030193019BE02302930A4B039339
:103ED800032305930024049402A90848FDF76CFC09
:103EE800224621461720FDF7F1FB1720FDF720FC9D
:103EF80006B010BD0010024000003110000C014057
:103F08004FF40002014B1A61704700BF00080140DE
:103F18008022014B1A617047000801404FF480323B
:103F2800014B1A61704700BF000C01400122014B90
:103F38001A617047000C01404FF40032014B1A61BE
:103F4800704700BF000C01400222014B1A61704704
:103F5800000C0140034B1A68136A43F00103136213
:103F6800704700BF04020020044B1A68136A23F04C
:103F780001031B041B0C1362704700BF04020020DE
:103F8800034B1A68136A43F010031362704700BFAB
:103F980004020020044B1A68136A23F010031B0460
:103FA8001B0C1362704700BF04020020034B1A6801
:103FB800136A43F480731362704700BF0402002041
:103FC800044B1A68136A23F480731B041B0C1362D6
:103FD800704700BF04020020064B1B6803FB00F07B
:103FE800054BA3FB00308009044B1B68586398639A
:103FF800D863704740020020D34D621004020020AD
:1040080010B50020FFF7E8FF104C0123A373FFF75A
:104018007FFFFFF78BFFFFF797FFFFF7A5FFFFF77E
:10402800B9FFFFF7CDFF002211461720FDF74EFB21
:104038001720FDF789FB064B20225A6140225A615E
:1040480080225A6100232371637110BD4002002051
:10405800000401402DE9F04399B0644B9A6942F499
:1040680000529A619A6902F400520192019A604AD8
:104078001268D2085F49A1FB0212120A013A5E4F88
:104088003A609A6942F400529A619A6902F40052BD
:104098000292029A9A6942F004029A619A6902F0BD
:1040A80004020392039A9A6942F008029A619A6993
:1040B80002F008020492049A9A6942F010029A6186
:1040C8009B6903F010030593059BFFF721FFFFF79A
:1040D8002DFFFFF739FF012615964FF00308CDF89D
:1040E8005C80169618AC802344F8103D214643485E
:1040F800FDF762FB1496DFF8149121464846FDF758
:104108005BFB0225149521464846FDF755FB15959E
:10411800CDF85C8016954FF4E07314932146384827
:10412800FDF74AFB374D384B2B6000246C603B6829
:10413800EB602C61AC606C612846FDF78DFD0C943A
:104148000B940A9408944FF4806307934FF4006328
:1041580006932823099306A92846FDF77FFA6023CA
:104168000D9311940F944FF00808CDF840801294E5
:1041780013940E9422460DA92846FDF7C1FD0E940E
:1041880004220DA92846FDF7BBFD0E9442460DA951
:104198002846FDF7B5FD21462846FDF72DFE0421EA
:1041A8002846FDF729FE41462846FDF725FE0C2145
:1041B8002846FDF743FE2046FFF70EFFFFF7A8FE4F
:1041C800FFF7B4FEFFF7C0FEFFF7CEFEFFF7E2FEF3
:1041D800FFF7F6FEBE73324621462E20FDF776FA2B
:1041E8002E20FDF7A5FA19B0BDE8F08300100240B3
:1041F8000000002089B5F8144002002000080140A2
:10420800001001400402002000340140000C01406D
:1042180008B5FFF71FFFFFF74BFE044B00221A718A
:104228005A71DA801A81FFF7EBFE08BD40020020C0
:1042380010B53E4B9B6803F0E0033D4CA381FFF7AC
:1042480067FEFFF773FEFFF77FFEFFF78DFEFFF7B0
:10425800A1FEFFF7B5FEA37B13F0FF0F65D1A37A8C
:1042680013F0FF0F30D0A3899BB2602B16D004D86F
:10427800202B09D0402B0CD024E0A02B18D0C02B29
:104288001BD0802B1ED10EE0FFF764FEFFF746FE21
:1042980010BDFFF775FEFFF74FFE10BDFFF75AFE82
:1042A800FFF74AFE10BDFFF72BFEFFF77FFE10BD9C
:1042B800FFF734FEFFF77AFE10BDFFF721FEFFF788
:1042C8005FFE10BD00BF10BD194B9B899BB2602BD0
:1042D80016D004D8202B09D0402B0CD024E0A02BDA
:1042E80018D0C02B1BD0802B1ED10EE0FFF708FE84
:1042F800FFF746FE10BDFFF711FEFFF757FE10BD92
:10430800FFF7FEFDFFF752FE10BDFFF723FEFFF794
:1043180013FE10BDFFF734FEFFF70EFE10BDFFF7CA
:1043280019FEFFF7FBFD10BD00BF10BD000C0140DA
:104338004002002038B50020FFF74EFE094D00244A
:104348002C81EC80224621461720FDF7BFF9172063
:10435800FDF7EEF92046FFF73FFEAC73FFF768FF65
:1043680038BD00BF4002002010B50446B0F57A7F82
:1043780001DD4FF47A7414F57A7F00DA1B4C002CB7
:104388000DDA604280B204B2194B1B780BB9FFF703
:1043980023FE0123174A9372154A13700BE0144B3E
:1043A8001B78012B02D1A0B2FFF716FE0023114A99
:1043B80093720F4A1370A4B2631D9BB20A2B05D8DF
:1043C80001230C4A93730C4A13700AE00022094B2C
:1043D8009A73094B1B780BB1FFF72AFF0022064B93
:1043E8001A702046FFF7F8FD10BD00BF18FCFFFF4C
:1043F800880000204002002089000020024B012292
:104408001A715A71704700BF4002002008B51B4B53
:104418005B7913F0FF0F0ED0184B1B7913F0FF0FC9
:1044280009D1FFF705FF154B002159711A8992B27E
:10443800DA8019810EE0114B5B7913F0FF0F09D078
:104448000E4B1B7913F0FF0F04D00C4A1379013B74
:10445800DBB21371094A13899BB201339BB21381F2
:1044680013899BB241F28732934205D9034B41F23B
:1044780088321A810022DA8008BD00BF400200207D
:104488004FF00052014B1A61704700BF000C014009
:104498004FF40052014B1A61704700BF000C0140F5
:1044A8004FF08042014B1A61704700BF000C014079
:1044B8004FF48042014B1A61704700BF000C014065
:1044C8004FF00042014B1A61704700BF000C0140D9
:1044D8004FF40042014B1A61704700BF000C0140C5
:1044E80010B586B0104B9A6942F010029A619B6928
:1044F80003F010030193019B4FF4E05302930B4B1D
:104508000393032305930024049402A90848FDF7A4
:1045180053F9224621462820FDF7D8F82820FDF730
:1045280007F906B010BD00BF0010024000003110AE
:1045380000100140034B1A68136A43F00103136229
:10454800704700BF60020020044B1A68136A23F00A
:1045580001031B041B0C1362704700BF600200209C
:10456800034B1A68136A43F010031362704700BFC5
:1045780060020020044B1A68136A23F010031B041E
:104588001B0C1362704700BF60020020034B1A68BF
:10459800136A43F480731362704700BF60020020FF
:1045A800044B1A68136A23F480731B041B0C1362F0
:1045B800704700BF60020020064B1B6803FB00F039
:1045C800054BA3FB00308009044B1B6858639863B4
:1045D800D863704750020020D34D6210600200205B
:1045E80010B50020FFF7E8FF124C0123A373FFF773
:1045F8004FFFFFF75DFFFFF76BFFFFF7A5FFFFF723
:10460800B9FFFFF7CDFF002211462820FDF75EF81D
:104618002820FDF799F8084B4FF480525A614FF45F
:1046280000625A614FF480625A61002323716371FA
:1046380010BD00BF50020020000401402DE9F041E8
:1046480096B06A4B9A6942F400629A619A6902F4D8
:1046580000620092009A664A1268D2086549A1FB76
:104668000212120A013A644F3A609A6942F40062EF
:104678009A619A6902F400620192019A9A6942F079
:1046880004029A619A6902F004020292029A9A69F3
:1046980042F008029A619B6903F008030393039BA5
:1046A800FFF7F6FEFFF704FFFFF712FF0126139648
:1046B80014964FF00308CDF8548016AC4FF400530D
:1046C80044F8103D4D4D21462846FDF775F84FF446
:1046D8008043129321462846FDF76EF84FF40043B5
:1046E800129321462846FDF767F802231393149383
:1046F800CDF854804FF480731293A5F58065214658
:104708002846FDF759F84FF40073129321462846BE
:10471800FDF752F84FF48068CDF8488021462846C6
:10472800FDF74AF8364D374B2B6000246C603B6828
:10473800EB602C61AC606C612846FDF78DFA0A9439
:10474800099408940694CDF814804FF400630493F8
:104758002823079304A92846FCF780FF60230B93BE
:104768000F940D944FF00808CDF8388010941194E8
:104778000C9422460BA92846FDF7C2FA0C94042291
:104788000BA92846FDF7BCFA0C9442460BA928460B
:10479800FDF7B6FA21462846FDF72EFB04212846E8
:1047A800FDF72AFB41462846FDF726FB0C21284643
:1047B800FDF744FB2046FFF7FFFEFFF769FEFFF712
:1047C80077FEFFF785FEFFF7BFFEFFF7D3FEFFF783
:1047D800E7FEBE73324621461B20FCF777FF1B20FD
:1047E800FCF7A6FF16B0BDE8F08100BF001002403C
:1047F8000000002089B5F81450020020000C014088
:1048080060020020002C014008B5FFF717FFFFF7F2
:1048180067FE044B00221A715A71DA801A81FFF779
:10482800DFFE08BD5002002010B5444B9B6803F41E
:10483800E053434CA381FFF72BFEFFF739FEFFF748
:1048480047FEFFF781FEFFF795FEFFF7A9FEA37B62
:1048580013F0FF0F71D1A37A13F0FF0F36D0A3899D
:104868009BB2B3F5406F1BD006D8B3F5806F0DD05F
:10487800B3F5006F0FD027E0B3F5A05F1AD0B3F5FA
:10488800C05F1CD0B3F5805F1ED10EE0FFF7F8FDC6
:10489800FFF766FE10BDFFF703FEFFF777FE10BDBA
:1048A800FFF7EEFDFFF772FE10BDFFF743FEFFF7BF
:1048B80007FE10BDFFF754FEFFF702FE10BDFFF71D
:1048C80039FEFFF7EDFD10BD00BF10BD1C4B9B89E5
:1048D8009BB2B3F5406F1BD006D8B3F5806F0DD0EF
:1048E800B3F5006F0FD027E0B3F5A05F1AD0B3F58A
:1048F800C05F1CD0B3F5805F1ED10EE0FFF71AFE33
:10490800FFF7CEFD10BDFFF72BFEFFF7D9FD10BD59
:10491800FFF710FEFFF7D4FD10BDFFF7B1FDFFF75D
:1049280035FE10BDFFF7BCFDFFF730FE10BDFFF7E9
:10493800A7FDFFF715FE10BD00BF10BD0010014018
:104948005002002038B50020FFF736FE094D00243C
:104958002C81EC80224621462820FCF7B7FE28202F
:10496800FCF7E6FE2046FFF727FEAC73FFF75CFF77
:1049780038BD00BF5002002010B50446B0F57A7F5C
:1049880001DD4FF47A7414F57A7F00DA1B4C002CA1
:104998000DDA604280B204B2194B1B780BB9FFF7ED
:1049A8000BFE0123174A9372154A13700BE0144B40
:1049B8001B78012B02D1A0B2FFF7FEFD0023114A9C
:1049C80093720F4A1370A4B2631D9BB20A2B05D8C9
:1049D80001230C4A93730C4A13700AE00022094B16
:1049E8009A73094B1B780BB1FFF71EFF0022064B89
:1049F8001A702046FFF7E0FD10BD00BF18FCFFFF4E
:104A08008A000020500200208B000020024B012267
:104A18001A715A71704700BF5002002008B51B4B2D
:104A28005B7913F0FF0F0ED0184B1B7913F0FF0FB3
:104A380009D1FFF7F9FE154B002159711A8992B275
:104A4800DA8019810EE0114B5B7913F0FF0F09D062
:104A58000E4B1B7913F0FF0F04D00C4A1379013B5E
:104A6800DBB21371094A13899BB201339BB21381DC
:104A780013899BB241F28732934205D9034B41F225
:104A880088321A810022DA8008BD00BF5002002057
:104A980000B583B01A4BDA6942F40032DA61DB6997
:104AA80003F400330193019B062205211020FCF733
:104AB8000DFE1020FCF73CFE072205211120FCF713
:104AC80005FE1120FCF734FE0E480F4B03604FF42F
:104AD800E133436000238360C36003610C224261B9
:104AE8008361FEF745FC08B100F05EFA074B00222F
:104AF80083F87920012283F87A2003B05DF804FB5B
:104B08000010024088030020004400409C0200205E
:104B180010B5044600F080FD82B221460148FEF738
:104B280057FC10BD880300200268044B9A4203D149
:104B38000122034B83F87920704700BF00440040EE
:104B48009C0200200268044B9A4203D10122034BC5
:104B580083F87A20704700BF004400409C02002080
:104B680010B586B00D4B9A6942F008029A619B69AC
:104B780003F008030193019B094C002204212046FD
:104B8800FCF71CFF042302930123039302230593DC
:104B980002A92046FCF710FE06B010BD0010024026
:104BA800000C014000B587B00B4B9A6942F0040233
:104BB8009A619B6903F004030193019B4FF48053AE
:104BC8000293002303930123049302A90348FCF7EB
:104BD800F3FD07B05DF804FB001002400008014037
:104BE80008B5024604210248FCF7E8FE08BD00BFEC
:104BF800000C014008B5024620210248FCF7DEFE01
:104C080008BD00BF0008014008B50246102102484F
:104C1800FCF7D4FE08BD00BF0008014030B587B0DE
:104C2800124B9A6942F004029A619B6903F00403EB
:104C38000193019B0E4D002210212846FCF7BEFE71
:104C480010230293012403940223059302A9284602
:104C5800FCF7B2FD0020FFF7D7FF2046FFF7D4FF8F
:104C68000020FFF7D1FF07B030BD00BF00100240A1
:104C78000008014038B500251AE00120FFF7C4FFFD
:104C8800A02000F0F1F80020FFF7BEFFA02000F000
:104C9800EBF80A48FFF716F8013400E00024952CD9
:104CA800EBDD0020FFF7B0FFC820FEF7BFFC0135A1
:104CB800012DF3DD0020FFF7A7FF38BD4C050020CC
:104CC80010B500240FE00120FFF79EFFA02000F0A0
:104CD800CBF80020FFF798FFA02000F0C5F80548A2
:104CE800FEF7F0FF0134B4F5167FECDB0020FFF788
:104CF8008BFF10BD4C05002008B502210148FCF7C8
:104D080055FE08BD0008014030B587B00F4B9A69C1
:104D180042F004029A619B6903F004030193019B2A
:104D28000224049420230293012303930594084D3D
:104D380002A92846FCF740FD02940023039304933C
:104D480002A92846FCF738FD07B030BD0010024024
:104D58000008014008B5FFF79BFE082202490348F6
:104D6800FEF786FB08BD00BFE8030020880300208B
:104D780008B5044B58680449FBF746FFFCF70AF9E5
:104D880000B208BDE803002000007A4408B5044BCF
:104D980018680449FBF738FFFCF7FCF800B208BDB7
:104DA800E803002000007A440268034B9A4202D1CB
:104DB8000122024B1A73704700580040F00300208C
:104DC8000268034B9A4202D10122024B5A73704780
:104DD80000580040F00300200268034B9A4202D1B9
:104DE8000122024B9A73704700580040F0030020DC
:104DF80010B582B0114BDA6942F00102DA61DB6961
:104E080003F001030193019B0D4C4FF08043236095
:104E18004FF6FF73E3600B4B1B680B4AA2FB03239F
:104E28009B0C013B636000232361A3602046FCF7D1
:104E3800F7FE2046FCF784FE02B010BD00100240C9
:104E4800B00400200000002083DE1B4308B504489E
:104E5800FCF784FE034AD36923F00103D36108BD3C
:104E6800B00400200010024010B50446FFF7C0FF50
:104E78004FF080435A6A4FF080435B6A9B1AA34203
:104E8800F9D9FFF7E3FF10BD014B1868704700BF61
:104E9800EC04002070B50B4C00262670FFF7A0FB31
:104EA800FFF7AEF8FEF7BCFB074D6860FEF7B8FBEE
:104EB80028614FF4AF63AB602E730023A361636274
:104EC800A36270BD00050020EC0400200000000073
:104ED800F8B5FEF7A5FB204B5B68C01AC82836D981
:104EE800FEF79EFB1C4C6060A068A568FBF70CFBF6
:104EF80000221A4BFBF7A8FC06460F462846FBF78C
:104F080003FB32463B46FBF7C1F9FBF70DFEA060F9
:104F1800FEF7BAFFFBF708FB0022104BFBF794FCE7
:104F280006460F46A068FBF7EFFA32463B46FBF70A
:104F3800AFF9FBF7F9FDA060A068FBF7E5FA04A359
:104F4800D3E90023FBF756FBFBF70EFE2060F8BD04
:104F5800F5E4E827181C9B3FEC04002000002440DF
:104F680008B5FEF783FFA0F24A7000B208BD00BF83
:104F780008B5FEF715FFA0F24A7000B208BD00BFE1
:104F880010B504460268064B9A4201D1FEF78AFF23
:104F98002268044B9A4201D1FEF710FF10BD00BFF2
:104FA80000240140003C014008B5FFF719FBFFF75A
:104FB80027F8FEE700B583B00E4BDA6942F40062C9
:104FC800DA61DB6903F400630193019B0A480B4B28
:104FD80003600123436040F6FF738360FEF728FEF9
:104FE80008B1FFF7E1FF0448FEF756FE03B05DF88D
:104FF80004FB00BF001002404C05002000300040B8
:1050080000B597B002230C9301221092102211923E
:105018001393002314934FF4601315930CA8FDF712
:105028003DF808B1FFF7C0FF0F230793022108914D
:10503800002309934FF480620A920B9307A8FDF7A7
:1050480069FB08B1FFF7B0FF022301934FF4404317
:10505800039301A8FEF74EFD08B1FFF7A5FFFDF782
:1050680049FC094BA3FB00308009FCF779FB0420BD
:10507800FCF78CFB002211464FF0FF30FCF726FBB3
:1050880017B05DF804FB00BFD34D621000000000AC
:1050980070B59AB0FEF7AAFAFFF7B2FFFFF734FE31
:1050A8000120FFF7A7FDFFF755FEFFF7B7FDFFF754
:1050B80057FDFFF777FDFEF72DFEFEF785FEFFF79C
:1050C800A7F8FFF7A1FB4FF4AF70FEF7AFFA02E0C5
:1050D8000020FFF785FDFFF70FFE0028F8D1FFF746
:1050E800D9FEFFF7F5FEFFF765FF0120FFF778FD12
:1050F800FFF7C0FD4FF4AF70FEF798FAFFF722FCF8
:10510800FFF718F900240134FFF7F6FD18B90FE08E
:105118006B48FEF7D7FDFFF7EFFD0028F8D1FFF742
:10512800CFFD4FF4AF70FEF781FA0020FFF762FD64
:10513800644BA3FB04239B09C82202FB1343002BE7
:105148003FD1FFF723FEC82808DCFFF71FFE10F148
:10515800C80F06DBFFF71AFE454203E06FF0C705EC
:1051680000E0C825FFF704FEC82808DCFFF700FEAA
:1051780010F1C80F06DBFFF7FBFD464203E06FF0B6
:10518800C70600E0C826312D0DDC15F1310F0ADB0A
:10519800312E08DC16F1310F05DB28B2FFF7E4F8F1
:1051A80030B2FFF7E9FB6422002101A800F008FAF9
:1051B80033462A46444901A800F00AFA01A8FFF735
:1051C800A7FCFFF785FEFFF75FFE4049FBF7BAFE35
:1051D800002856D1FFF7C4FEFBF7A6F936A3D3E99A
:1051E8000023FBF707FA00220023FBF775FC78B1D0
:1051F800FFF7B6FEFBF798F92FA3D3E90023FBF7D7
:10520800F9F90022324BFBF767FC002839D10DE091
:10521800FFF7A6FEFBF788F927A3D3E90023FBF7DE
:10522800E9F900222B4BFBF775FC50BBFFF7A0FEFA
:10523800FBF77AF920A3D3E90023FBF7DBF9002277
:105248000023FBF749FC70B1FFF792FEFBF76CF9FE
:1052580019A3D3E90023FBF7CDF900221C4BFBF778
:105268003BFC70B91CE0FFF783FEFBF75DF912A366
:10527800D3E90023FBF7BEF90022164BFBF74AFCE3
:1052880070B10020FFF770F80020FFF775FBFFF7FB
:1052980017FD4FF4AF70FEF7C9F90020FFF7AAFC1D
:1052A8000748FEF70FFDFEF7BBF90B4B1B68C01A4A
:1052B8000A4B186027E700BF7B14AE47E17A943F9A
:1052C8004C0500201F85EB51705E00080000F84176
:1052D800000034C000003440480500205C05002070
:1052E80000B583B01C4B9A6942F001029A619B6930
:1052F80003F001030193019B0320FCF7D5F9002279
:1053080011466FF00B00FCF7E1F9002211466FF02F
:105318000A00FCF7DBF9002211466FF00900FCF7E0
:10532800D5F9002211466FF00400FCF7CFF90022EE
:1053380011466FF00300FCF7C9F9002211466FF01F
:105348000100FCF7C3F9002211464FF0FF30FCF7CB
:10535800BDF903B05DF804FB0010024010B586B03B
:10536800044603682F4A93422BD12F4B9A6942F483
:1053780000729A619B6903F400730093009B0623F3
:1053880002930323039302A92848FCF715FA284837
:10539800284B03600023436083608022C2604FF47F
:1053A800807202614FF48062426120228261C3618F
:1053B800FDF7E4FA08B1FFF7F7FD1D4B23625C62C5
:1053C8002DE01D4A93422AD1174B9A6942F40042B4
:1053D8009A619B6903F400430193019B01230293A3
:1053E8000323039302A91148FCF7E6F91348144B69
:1053F80003600023436083608022C2604FF48072A0
:1054080002614FF48062426120228261C361FDF72C
:10541800B5FA08B1FFF7C8FD084B23625C6206B015
:1054280010BD00BF002401400010024000100140E0
:105438004801002008000240003C0140A000002074
:10544800580402400268324B9A425FD170B588B066
:10545800044603F5E6335A6942F001025A615A6973
:1054680002F001020192019A9A6942F004029A61DB
:105478009A6902F004020292029ADA6942F400324E
:10548800DA61DB6903F400330393039B012306937A
:105498000423049302230593032307931D4E04A9B1
:1054A8003046FCF789F9082304930025059504A9DB
:1054B8003046FCF781F91848184B03604560856051
:1054C8008023C3600561456120238361C561FDF7C1
:1054D80055FA08B1FFF768FD0F4B63635C6210482B
:1054E800104B036010234360002383608022C26056
:1054F800036143618361C361FDF740FA08B1FFF7B7
:1055080053FD074B23635C6208B070BD704700BF52
:105518000044004000080140180300206C000240CD
:105528005003002080000240002103E00B4B5B5831
:10553800435004310A480B4B42189A42F6D30A4AA0
:1055480002E0002342F8043B084B9A42F9D3FCF7E7
:105558003BFA00F00FF8FFF79BFD7047B85E0008B4
:10556800000000206800002068000020640500207A
:10557800FEE700000E4B70B51E460E4C0025E41ADF
:10558800A410A54204D056F8253098470135F8E70D
:1055980000F048FC084B094C1E46E41AA4100025EC
:1055A800A54204D056F8253098470135F8E770BD74
:1055B800B05E0008B05E0008B05E0008B45E000887
:1055C80003460244934202D003F8011BFAE77047EE
:1055D8000EB400B54FF402719CB0ADF814106FF022
:1055E8000041049107914FF6FF711DABADF81610FD
:1055F800084953F8042B02900690086802A9019301
:1056080000F06CF8029B00221A701CB05DF804EBE5
:1056180003B0704764000020034613F8012B002AEA
:10562800FBD1181A013870472DE9F0478E68824679
:10563800B3420C469046994640D38A8912F4906F3B
:105648003AD02568096902236F1A656905EB450593
:1056580095FBF3F57B1C4B449D4238BF1D46530513
:105668000FD5294600F03AFB064698B121693A461B
:1056780000F0CAFAA38923F4906343F08003A3815E
:1056880013E02A4600F080FB064670B950462169AF
:1056980000F0E0FA0C23CAF80030A3894FF0FF307D
:1056A80043F04003A381BDE8F08726613E442660AD
:1056B8004E466561ED1BA560B14500D24E463246A7
:1056C8002068414600F0ABFAA36800209B1BA3604A
:1056D80023681E442660BDE8F08700002DE9F043EA
:1056E8009DB003938B8906461C060D4690460CD543
:1056F8000B6953B9402100F0F1FA2860286110B90C
:105708000C233360CCE040236B61002309932023F2
:105718008DF8293030238DF82A3043461C4613F87B
:10572800012B1AB9B4EB08090FD002E0252AF5D1EC
:10573800F8E73046294642464B46FFF775FF0130E9
:1057480000F0A980099B4B4409932378002B00F0B3
:10575800A28000234FF0FF3204930793059206932B
:105768008DF853301A9304F101084446DFF8489144
:1057780021784846052200F039FA08F10108049B0F
:1057880030B1C9EB00000122824013430493ECE7D7
:10579800D80644BF20228DF85320190744BF2B2276
:1057A8008DF8532022782A2A02D0079923460EE042
:1057B800039A0134111D12680391002ABBBF52429B
:1057C80043F0020307920792B8BF04930AE01C460D
:1057D80022780133303A092A03D80A2000FB012134
:1057E800F5E7079123782E2B1AD163782A2B0AD153
:1057F800039B02341A1D1B680392002BB8BF4FF09D
:10580800FF3305930CE0611C00220C46237801311C
:10581800303B092B03D80A2000FB0232F5E705923A
:10582800DFF8988021784046032200F0DFF938B18C
:10583800049AC8EB000040238340134304930134C7
:1058480021781A48062204F101088DF8281000F082
:10585800CDF988B1164B33B9039B073323F00703FF
:105868000833039313E003AB0093304604A92A4698
:10587800104BAFF3008007E003AB0093304604A958
:105888002A460C4B00F092F8421C074603D0099BAD
:105898003B44099341E7AB895B0601D4099801E0D1
:1058A8004FF0FF301DB0BDE8F08300BF845E0008F4
:1058B80000000000315600087A5E0008805E00088B
:1058C8002DE9F84391461F468A680B6906469342BC
:1058D800B8BF1346C9F8003091F843200C46DDF8EC
:1058E800208012B10133C9F800302368990642BFFD
:1058F800D9F800300233C9F80030256815F00605DC
:105908001CD094F843302268003318BF0123920654
:105918001FD5E118302081F843005A1C94F845102F
:105928002244023382F8431013E03046394604F12A
:1059380019020123C047013007D00135E368D9F8BF
:1059480000209B1A9D42F0DBDBE74FF0FF30BDE8FB
:10595800F8833046394604F14302C0470130F4D099
:105968002268D9F80050E36802F00602042A08BF4A
:105978005D1B2269A3680CBF25EAE57500259342E3
:10598800C4BF9B1AED184FF00009A9450ADA304642
:10599800394604F11A020123C0470130D5D009F174
:1059A8000109F2E70020BDE8F88300002DE9FF4176
:1059B8000C461746227E98466E2A06460A9B01F137
:1059C800430100F0B08012D8632A23D00AD8002AF5
:1059D80000F0BD80582A40F0CC8084F84520DFF8DC
:1059E80004E257E0642A1ED0692A1CD0C1E0732A59
:1059F80000F0B18009D86F2A2ED0702A40F0B98003
:105A0800226842F0200222603FE0752A24D0782ADA
:105A18003BD0AEE01A6804F14205111D1960136805
:105A280084F84230A9E020681A6810F0800F02D08C
:105A3800101D186008E010F0400F02F10400186013
:105A480002D0B2F9003000E01368002B3EDA2D22B4
:105A58005B4284F8432039E020681A6810F0800F10
:105A680002D0101D186007E010F0400F02F104008A
:105A7800186001D0138800E01368227EDFF864E123
:105A88006F2A0CBF08220A221CE07822DFF858E1AE
:105A980084F845202268186812F0800F00F1040588
:105AA8001D6003D1550601D5038800E00368D007BF
:105AB80044BF42F0200222601BB9226822F0200273
:105AC80022601022002084F8430002E0DFF814E18D
